{
  "_format": "hh-sol-artifact-1",
  "contractName": "VeritasReviews",
  "sourceName": "contracts/VeritasReviews.sol",
  "abi": [
    {
      "inputs": [
        {
          "internalType": "address",
          "name": "receiptNftAddress",
          "type": "address"
        }
      ],
      "stateMutability": "nonpayable",
      "type": "constructor"
    },
    {
      "inputs": [
        {
          "internalType": "uint256",
          "name": "productId",
          "type": "uint256"
        },
        {
          "internalType": "string",
          "name": "reviewIpfsHash",
          "type": "string"
        }
      ],
      "name": "addReview",
      "outputs": [],
      "stateMutability": "nonpayable",
      "type": "function"
    },
    {
      "inputs": [
        {
          "internalType": "uint256",
          "name": "productId",
          "type": "uint256"
        }
      ],
      "name": "getReviewsForProduct",
      "outputs": [
        {
          "components": [
            {
              "internalType": "uint256",
              "name": "id",
              "type": "uint256"
            },
            {
              "internalType": "address",
              "name": "reviewer",
              "type": "address"
            },
            {
              "internalType": "string",
              "name": "reviewIpfsHash",
              "type": "string"
            },
            {
              "internalType": "uint256",
              "name": "timestamp",
              "type": "uint256"
            }
          ],
          "internalType": "struct VeritasReviews.Review[]",
          "name": "",
          "type": "tuple[]"
        }
      ],
      "stateMutability": "view",
      "type": "function"
    },
    {
      "inputs": [
        {
          "internalType": "uint256",
          "name": "",
          "type": "uint256"
        },
        {
          "internalType": "uint256",
          "name": "",
          "type": "uint256"
        }
      ],
      "name": "reviewsByProductId",
      "outputs": [
        {
          "internalType": "uint256",
          "name": "id",
          "type": "uint256"
        },
        {
          "internalType": "address",
          "name": "reviewer",
          "type": "address"
        },
        {
          "internalType": "string",
          "name": "reviewIpfsHash",
          "type": "string"
        },
        {
          "internalType": "uint256",
          "name": "timestamp",
          "type": "uint256"
        }
      ],
      "stateMutability": "view",
      "type": "function"
    }
  ],
  "bytecode": "0x608060405234801561001057600080fd5b5060405162000fc038038062000fc0833981810160405281019061003491906100dd565b806000806101000a81548173ffffffffffffffffffffffffffffffffffffffff021916908373ffffffffffffffffffffffffffffffffffffffff1602179055505061010a565b600080fd5b600073ffffffffffffffffffffffffffffffffffffffff82169050919050565b60006100aa8261007f565b9050919050565b6100ba8161009f565b81146100c557600080fd5b50565b6000815190506100d7816100b1565b92915050565b6000602082840312156100f3576100f261007a565b5b6000610101848285016100c8565b91505092915050565b610ea6806200011a6000396000f3fe608060405234801561001057600080fd5b50600436106100415760003560e01c80635bb0c5d6146100465780635dbc607314610062578063b343f07c14610095575b600080fd5b610060600480360381019061005b9190610699565b6100c5565b005b61007c600480360381019061007791906106f5565b6102a6565b60405161008c9493929190610804565b60405180910390f35b6100af60048036038101906100aa9190610850565b61039b565b6040516100bc9190610a0a565b60405180910390f35b60008060009054906101000a900473ffffffffffffffffffffffffffffffffffffffff1673ffffffffffffffffffffffffffffffffffffffff166370a08231336040518263ffffffff1660e01b81526004016101219190610a2c565b602060405180830381865afa15801561013e573d6000803e3d6000fd5b505050506040513d601f19601f820116820180604052508101906101629190610a5c565b116101a2576040517f08c379a000000000000000000000000000000000000000000000000000000000815260040161019990610afb565b60405180910390fd5b600260008154809291906101b590610b4a565b919050555060016000838152602001908152602001600020604051806080016040528060025481526020013373ffffffffffffffffffffffffffffffffffffffff1681526020018381526020014281525090806001815401808255809150506001900390600052602060002090600402016000909190919091506000820151816000015560208201518160010160006101000a81548173ffffffffffffffffffffffffffffffffffffffff021916908373ffffffffffffffffffffffffffffffffffffffff16021790555060408201518160020190816102959190610d9e565b506060820151816003015550505050565b600160205281600052604060002081815481106102c257600080fd5b9060005260206000209060040201600091509150508060000154908060010160009054906101000a900473ffffffffffffffffffffffffffffffffffffffff169080600201805461031290610bc1565b80601f016020809104026020016040519081016040528092919081815260200182805461033e90610bc1565b801561038b5780601f106103605761010080835404028352916020019161038b565b820191906000526020600020905b81548152906001019060200180831161036e57829003601f168201915b5050505050908060030154905084565b606060016000838152602001908152602001600020805480602002602001604051908101604052809291908181526020016000905b828210156104fe5783829060005260206000209060040201604051806080016040529081600082015481526020016001820160009054906101000a900473ffffffffffffffffffffffffffffffffffffffff1673ffffffffffffffffffffffffffffffffffffffff1673ffffffffffffffffffffffffffffffffffffffff16815260200160028201805461046390610bc1565b80601f016020809104026020016040519081016040528092919081815260200182805461048f90610bc1565b80156104dc5780601f106104b1576101008083540402835291602001916104dc565b820191906000526020600020905b8154815290600101906020018083116104bf57829003601f168201915b50505050508152602001600382015481525050815260200190600101906103d0565b505050509050919050565b6000604051905090565b600080fd5b600080fd5b6000819050919050565b6105308161051d565b811461053b57600080fd5b50565b60008135905061054d81610527565b92915050565b600080fd5b600080fd5b6000601f19601f8301169050919050565b7f4e487b7100000000000000000000000000000000000000000000000000000000600052604160045260246000fd5b6105a68261055d565b810181811067ffffffffffffffff821117156105c5576105c461056e565b5b80604052505050565b60006105d8610509565b90506105e4828261059d565b919050565b600067ffffffffffffffff8211156106045761060361056e565b5b61060d8261055d565b9050602081019050919050565b82818337600083830152505050565b600061063c610637846105e9565b6105ce565b90508281526020810184848401111561065857610657610558565b5b61066384828561061a565b509392505050565b600082601f8301126106805761067f610553565b5b8135610690848260208601610629565b91505092915050565b600080604083850312156106b0576106af610513565b5b60006106be8582860161053e565b925050602083013567ffffffffffffffff8111156106df576106de610518565b5b6106eb8582860161066b565b9150509250929050565b6000806040838503121561070c5761070b610513565b5b600061071a8582860161053e565b925050602061072b8582860161053e565b9150509250929050565b61073e8161051d565b82525050565b600073ffffffffffffffffffffffffffffffffffffffff82169050919050565b600061076f82610744565b9050919050565b61077f81610764565b82525050565b600081519050919050565b600082825260208201905092915050565b60005b838110156107bf5780820151818401526020810190506107a4565b60008484015250505050565b60006107d682610785565b6107e08185610790565b93506107f08185602086016107a1565b6107f98161055d565b840191505092915050565b60006080820190506108196000830187610735565b6108266020830186610776565b818103604083015261083881856107cb565b90506108476060830184610735565b95945050505050565b60006020828403121561086657610865610513565b5b60006108748482850161053e565b91505092915050565b600081519050919050565b600082825260208201905092915050565b6000819050602082019050919050565b6108b28161051d565b82525050565b6108c181610764565b82525050565b600082825260208201905092915050565b60006108e382610785565b6108ed81856108c7565b93506108fd8185602086016107a1565b6109068161055d565b840191505092915050565b600060808301600083015161092960008601826108a9565b50602083015161093c60208601826108b8565b506040830151848203604086015261095482826108d8565b915050606083015161096960608601826108a9565b508091505092915050565b60006109808383610911565b905092915050565b6000602082019050919050565b60006109a08261087d565b6109aa8185610888565b9350836020820285016109bc85610899565b8060005b858110156109f857848403895281516109d98582610974565b94506109e483610988565b925060208a019950506001810190506109c0565b50829750879550505050505092915050565b60006020820190508181036000830152610a248184610995565b905092915050565b6000602082019050610a416000830184610776565b92915050565b600081519050610a5681610527565b92915050565b600060208284031215610a7257610a71610513565b5b6000610a8084828501610a47565b91505092915050565b7f566572697461733a204d757374206f776e20612072656365697074204e46542060008201527f746f20706f73742061207265766965772e000000000000000000000000000000602082015250565b6000610ae5603183610790565b9150610af082610a89565b604082019050919050565b60006020820190508181036000830152610b1481610ad8565b9050919050565b7f4e487b7100000000000000000000000000000000000000000000000000000000600052601160045260246000fd5b6000610b558261051d565b91507fffffffffffffffffffffffffffffffffffffffffffffffffffffffffffffffff8203610b8757610b86610b1b565b5b600182019050919050565b7f4e487b7100000000000000000000000000000000000000000000000000000000600052602260045260246000fd5b60006002820490506001821680610bd957607f821691505b602082108103610bec57610beb610b92565b5b50919050565b60008190508160005260206000209050919050565b60006020601f8301049050919050565b600082821b905092915050565b600060088302610c547fffffffffffffffffffffffffffffffffffffffffffffffffffffffffffffffff82610c17565b610c5e8683610c17565b95508019841693508086168417925050509392505050565b6000819050919050565b6000610c9b610c96610c918461051d565b610c76565b61051d565b9050919050565b6000819050919050565b610cb583610c80565b610cc9610cc182610ca2565b848454610c24565b825550505050565b600090565b610cde610cd1565b610ce9818484610cac565b505050565b5b81811015610d0d57610d02600082610cd6565b600181019050610cef565b5050565b601f821115610d5257610d2381610bf2565b610d2c84610c07565b81016020851015610d3b578190505b610d4f610d4785610c07565b830182610cee565b50505b505050565b600082821c905092915050565b6000610d7560001984600802610d57565b1980831691505092915050565b6000610d8e8383610d64565b9150826002028217905092915050565b610da782610785565b67ffffffffffffffff811115610dc057610dbf61056e565b5b610dca8254610bc1565b610dd5828285610d11565b600060209050601f831160018114610e085760008415610df6578287015190505b610e008582610d82565b865550610e68565b601f198416610e1686610bf2565b60005b82811015610e3e57848901518255600182019150602085019450602081019050610e19565b86831015610e5b5784890151610e57601f891682610d64565b8355505b6001600288020188555050505b50505050505056fea26469706673582212209e49817a0351e8632b7dabd2086d1f37c3dd6aa0328c42792433166bad5d5c3a64736f6c63430008180033",
  "linkReferences": {},
  "deployedLinkReferences": {}
}