{
  "_format": "hh-sol-artifact-1",
  "contractName": "VeritasReviews",
  "sourceName": "contracts/VeritasReviews.sol",
  "abi": [
    {
      "inputs": [
        {
          "internalType": "address",
          "name": "receiptNftAddress",
          "type": "address"
        }
      ],
      "stateMutability": "nonpayable",
      "type": "constructor"
    },
    {
      "inputs": [
        {
          "internalType": "uint256",
          "name": "productId",
          "type": "uint256"
        },
        {
          "internalType": "string",
          "name": "reviewIpfsHash",
          "type": "string"
        },
        {
          "internalType": "uint256",
          "name": "reputationScore",
          "type": "uint256"
        },
        {
          "internalType": "uint256",
          "name": "fakenessScore",
          "type": "uint256"
        }
      ],
      "name": "addReview",
      "outputs": [],
      "stateMutability": "nonpayable",
      "type": "function"
    },
    {
      "inputs": [
        {
          "internalType": "uint256",
          "name": "productId",
          "type": "uint256"
        }
      ],
      "name": "getReviewsForProduct",
      "outputs": [
        {
          "components": [
            {
              "internalType": "uint256",
              "name": "id",
              "type": "uint256"
            },
            {
              "internalType": "address",
              "name": "reviewer",
              "type": "address"
            },
            {
              "internalType": "string",
              "name": "reviewIpfsHash",
              "type": "string"
            },
            {
              "internalType": "uint256",
              "name": "timestamp",
              "type": "uint256"
            },
            {
              "internalType": "uint256",
              "name": "reputationScore",
              "type": "uint256"
            },
            {
              "internalType": "uint256",
              "name": "fakenessScore",
              "type": "uint256"
            }
          ],
          "internalType": "struct VeritasReviews.Review[]",
          "name": "",
          "type": "tuple[]"
        }
      ],
      "stateMutability": "view",
      "type": "function"
    },
    {
      "inputs": [
        {
          "internalType": "uint256",
          "name": "",
          "type": "uint256"
        },
        {
          "internalType": "uint256",
          "name": "",
          "type": "uint256"
        }
      ],
      "name": "reviewsByProductId",
      "outputs": [
        {
          "internalType": "uint256",
          "name": "id",
          "type": "uint256"
        },
        {
          "internalType": "address",
          "name": "reviewer",
          "type": "address"
        },
        {
          "internalType": "string",
          "name": "reviewIpfsHash",
          "type": "string"
        },
        {
          "internalType": "uint256",
          "name": "timestamp",
          "type": "uint256"
        },
        {
          "internalType": "uint256",
          "name": "reputationScore",
          "type": "uint256"
        },
        {
          "internalType": "uint256",
          "name": "fakenessScore",
          "type": "uint256"
        }
      ],
      "stateMutability": "view",
      "type": "function"
    }
  ],
  "bytecode": "0x60806040523480156200001157600080fd5b5060405162001152380380620011528339818101604052810190620000379190620000e8565b806000806101000a81548173ffffffffffffffffffffffffffffffffffffffff021916908373ffffffffffffffffffffffffffffffffffffffff160217905550506200011a565b600080fd5b600073ffffffffffffffffffffffffffffffffffffffff82169050919050565b6000620000b08262000083565b9050919050565b620000c281620000a3565b8114620000ce57600080fd5b50565b600081519050620000e281620000b7565b92915050565b6000602082840312156200010157620001006200007e565b5b60006200011184828501620000d1565b91505092915050565b611028806200012a6000396000f3fe608060405234801561001057600080fd5b50600436106100415760003560e01c80635dbc607314610046578063b343f07c1461007b578063f252ff3f146100ab575b600080fd5b610060600480360381019061005b91906105da565b6100c7565b604051610072969594939291906106fa565b60405180910390f35b61009560048036038101906100909190610762565b6101c8565b6040516100a29190610942565b60405180910390f35b6100c560048036038101906100c09190610a99565b61034a565b005b600160205281600052604060002081815481106100e357600080fd5b9060005260206000209060060201600091509150508060000154908060010160009054906101000a900473ffffffffffffffffffffffffffffffffffffffff169080600201805461013390610b4b565b80601f016020809104026020016040519081016040528092919081815260200182805461015f90610b4b565b80156101ac5780601f10610181576101008083540402835291602001916101ac565b820191906000526020600020905b81548152906001019060200180831161018f57829003601f168201915b5050505050908060030154908060040154908060050154905086565b606060016000838152602001908152602001600020805480602002602001604051908101604052809291908181526020016000905b8282101561033f57838290600052602060002090600602016040518060c0016040529081600082015481526020016001820160009054906101000a900473ffffffffffffffffffffffffffffffffffffffff1673ffffffffffffffffffffffffffffffffffffffff1673ffffffffffffffffffffffffffffffffffffffff16815260200160028201805461029090610b4b565b80601f01602080910402602001604051908101604052809291908181526020018280546102bc90610b4b565b80156103095780601f106102de57610100808354040283529160200191610309565b820191906000526020600020905b8154815290600101906020018083116102ec57829003601f168201915b505050505081526020016003820154815260200160048201548152602001600582015481525050815260200190600101906101fd565b505050509050919050565b60008060009054906101000a900473ffffffffffffffffffffffffffffffffffffffff1673ffffffffffffffffffffffffffffffffffffffff166370a08231336040518263ffffffff1660e01b81526004016103a69190610b7c565b602060405180830381865afa1580156103c3573d6000803e3d6000fd5b505050506040513d601f19601f820116820180604052508101906103e79190610bac565b11610427576040517f08c379a000000000000000000000000000000000000000000000000000000000815260040161041e90610c4b565b60405180910390fd5b604b811061046a576040517f08c379a000000000000000000000000000000000000000000000000000000000815260040161046190610cdd565b60405180910390fd5b6002600081548092919061047d90610d2c565b9190505550600160008581526020019081526020016000206040518060c0016040528060025481526020013373ffffffffffffffffffffffffffffffffffffffff1681526020018581526020014281526020018481526020018381525090806001815401808255809150506001900390600052602060002090600602016000909190919091506000820151816000015560208201518160010160006101000a81548173ffffffffffffffffffffffffffffffffffffffff021916908373ffffffffffffffffffffffffffffffffffffffff16021790555060408201518160020190816105699190610f20565b50606082015181600301556080820151816004015560a08201518160050155505050505050565b6000604051905090565b600080fd5b600080fd5b6000819050919050565b6105b7816105a4565b81146105c257600080fd5b50565b6000813590506105d4816105ae565b92915050565b600080604083850312156105f1576105f061059a565b5b60006105ff858286016105c5565b9250506020610610858286016105c5565b9150509250929050565b610623816105a4565b82525050565b600073ffffffffffffffffffffffffffffffffffffffff82169050919050565b600061065482610629565b9050919050565b61066481610649565b82525050565b600081519050919050565b600082825260208201905092915050565b60005b838110156106a4578082015181840152602081019050610689565b60008484015250505050565b6000601f19601f8301169050919050565b60006106cc8261066a565b6106d68185610675565b93506106e6818560208601610686565b6106ef816106b0565b840191505092915050565b600060c08201905061070f600083018961061a565b61071c602083018861065b565b818103604083015261072e81876106c1565b905061073d606083018661061a565b61074a608083018561061a565b61075760a083018461061a565b979650505050505050565b6000602082840312156107785761077761059a565b5b6000610786848285016105c5565b91505092915050565b600081519050919050565b600082825260208201905092915050565b6000819050602082019050919050565b6107c4816105a4565b82525050565b6107d381610649565b82525050565b600082825260208201905092915050565b60006107f58261066a565b6107ff81856107d9565b935061080f818560208601610686565b610818816106b0565b840191505092915050565b600060c08301600083015161083b60008601826107bb565b50602083015161084e60208601826107ca565b506040830151848203604086015261086682826107ea565b915050606083015161087b60608601826107bb565b50608083015161088e60808601826107bb565b5060a08301516108a160a08601826107bb565b508091505092915050565b60006108b88383610823565b905092915050565b6000602082019050919050565b60006108d88261078f565b6108e2818561079a565b9350836020820285016108f4856107ab565b8060005b85811015610930578484038952815161091185826108ac565b945061091c836108c0565b925060208a019950506001810190506108f8565b50829750879550505050505092915050565b6000602082019050818103600083015261095c81846108cd565b905092915050565b600080fd5b600080fd5b7f4e487b7100000000000000000000000000000000000000000000000000000000600052604160045260246000fd5b6109a6826106b0565b810181811067ffffffffffffffff821117156109c5576109c461096e565b5b80604052505050565b60006109d8610590565b90506109e4828261099d565b919050565b600067ffffffffffffffff821115610a0457610a0361096e565b5b610a0d826106b0565b9050602081019050919050565b82818337600083830152505050565b6000610a3c610a37846109e9565b6109ce565b905082815260208101848484011115610a5857610a57610969565b5b610a63848285610a1a565b509392505050565b600082601f830112610a8057610a7f610964565b5b8135610a90848260208601610a29565b91505092915050565b60008060008060808587031215610ab357610ab261059a565b5b6000610ac1878288016105c5565b945050602085013567ffffffffffffffff811115610ae257610ae161059f565b5b610aee87828801610a6b565b9350506040610aff878288016105c5565b9250506060610b10878288016105c5565b91505092959194509250565b7f4e487b7100000000000000000000000000000000000000000000000000000000600052602260045260246000fd5b60006002820490506001821680610b6357607f821691505b602082108103610b7657610b75610b1c565b5b50919050565b6000602082019050610b91600083018461065b565b92915050565b600081519050610ba6816105ae565b92915050565b600060208284031215610bc257610bc161059a565b5b6000610bd084828501610b97565b91505092915050565b7f566572697461733a204d757374206f776e20612072656365697074204e46542060008201527f746f20706f73742061207265766965772e000000000000000000000000000000602082015250565b6000610c35603183610675565b9150610c4082610bd9565b604082019050919050565b60006020820190508181036000830152610c6481610c28565b9050919050565b7f566572697461733a2052657669657720666c616767656420617320706f74656e60008201527f7469616c207370616d2e00000000000000000000000000000000000000000000602082015250565b6000610cc7602a83610675565b9150610cd282610c6b565b604082019050919050565b60006020820190508181036000830152610cf681610cba565b9050919050565b7f4e487b7100000000000000000000000000000000000000000000000000000000600052601160045260246000fd5b6000610d37826105a4565b91507fffffffffffffffffffffffffffffffffffffffffffffffffffffffffffffffff8203610d6957610d68610cfd565b5b600182019050919050565b60008190508160005260206000209050919050565b60006020601f8301049050919050565b600082821b905092915050565b600060088302610dd67fffffffffffffffffffffffffffffffffffffffffffffffffffffffffffffffff82610d99565b610de08683610d99565b95508019841693508086168417925050509392505050565b6000819050919050565b6000610e1d610e18610e13846105a4565b610df8565b6105a4565b9050919050565b6000819050919050565b610e3783610e02565b610e4b610e4382610e24565b848454610da6565b825550505050565b600090565b610e60610e53565b610e6b818484610e2e565b505050565b5b81811015610e8f57610e84600082610e58565b600181019050610e71565b5050565b601f821115610ed457610ea581610d74565b610eae84610d89565b81016020851015610ebd578190505b610ed1610ec985610d89565b830182610e70565b50505b505050565b600082821c905092915050565b6000610ef760001984600802610ed9565b1980831691505092915050565b6000610f108383610ee6565b9150826002028217905092915050565b610f298261066a565b67ffffffffffffffff811115610f4257610f4161096e565b5b610f4c8254610b4b565b610f57828285610e93565b600060209050601f831160018114610f8a5760008415610f78578287015190505b610f828582610f04565b865550610fea565b601f198416610f9886610d74565b60005b82811015610fc057848901518255600182019150602085019450602081019050610f9b565b86831015610fdd5784890151610fd9601f891682610ee6565b8355505b6001600288020188555050505b50505050505056fea2646970667358221220a7d6392813480353451b9f7d1caca20a50868f3c17066c159f9aec76452f6ef664736f6c63430008180033",
  "linkReferences": {},
  "deployedLinkReferences": {}
}